:020000040800F2
:10000000380500209D010008451F0008CF1D00088D
:10001000411F0008850200082D280008000000008C
:10002000000000000000000000000000AD200008FB
:100030004103000800000000811F0008192100088A
:10004000B7010008B7010008B7010008B7010008B0
:10005000B7010008B7010008B7010008B7010008A0
:10006000B7010008B7010008B7010008B701000890
:10007000B7010008B7010008B7010008B701000880
:10008000B7010008B7010008B7010008B701000870
:10009000B7010008B7010008B7010008B701000860
:1000A000B7010008B7010008B7010008B701000850
:1000B000B7010008B7010008B7010008B701000840
:1000C000B7010008B7010008B7010008B701000830
:1000D000B70100081D280008B7010008B701000893
:1000E000B7010008B7010008B7010008B701000810
:1000F000B7010008B7010008B7010008B701000800
:10010000B7010008B7010008B7010008B7010008EF
:10011000B7010008B701000865220008B701000810
:10012000B7010008B7010008B7010008B7010008CF
:10013000B70100080000000000000000B70100083F
:10014000DD020008B7010008B7010008B701000888
:10015000B7010008B7010008B7010008B70100089F
:10016000B7010008B7010008B7010008B70100088F
:10017000B7010008B70100080000000000000000FF
:10018000B7010008B7010008DFF80CD000F068F8EC
:1001900000480047E128000838050020064880474D
:1001A00006480047FEE7FEE7FEE7FEE7FEE7FEE75C
:1001B000FEE7FEE7FEE7FEE70122000889010008EE
:1001C0002DE9F05F0546002092469B46884606468C
:1001D000814640241BE0284641464746224600F01F
:1001E0002FF853465A46C01A914110D3114618466B
:1001F000224600F016F82D1A67EB01084F462246FA
:100200000120002100F00DF817EB00094E41201EDF
:10021000A4F10104DFDC484631462A464346BDE8E6
:10022000F09F202A04DB203A00FA02F100207047F8
:100230009140C2F1200320FA03F319439040704724
:10024000202A04DB203A21FA02F00021704721FA2B
:1002500002F3D040C2F12002914008431946704792
:10026000064C074D06E0E06840F0010394E8070003
:1002700098471034AC42F6D3FFF78AFF04290008F0
:100280002429000800BFFEE700B58BB00E200690C1
:100290000020079001200890002001900290039018
:1002A00004900590012009900E200A9001A90648AB
:1002B00000F0F2F818B1992104A002F0B9FA0A206E
:1002C00000F006FD0BB000BD4C0000202E2E2F5379
:1002D00072632F63616E2E630000000000B589B069
:1002E000054800F030FA6B4602AA0221024800F0ED
:1002F00066F909B000BD00004C00002008B50D48AB
:100300000068401C0B4908600846007800F00300B4
:1003100078B902F0E3FA0848B0F9080000900648FE
:10032000B0F90630B0F90420B0F90210034801F02A
:10033000BFFE08BD08000020400000204C00002047
:100340007047024692F82000012803D092F820005E
:10035000022806D1106840690843136858610020DC
:100360007047506A40F4802050620120F8E770B571
:1003700004460D46A86800B900E000BF94F82000CC
:10038000012803D094F8200002287FD120688068DB
:1003900000F0806050B92068806800F0006028B9E3
:1003A0002068806800F08050002869D0206880684C
:1003B000C0F30161012088401860A86850B92E88F8
:1003C000E86840EA4656206800F5C07000EB01106E
:1003D00006600BE0D5E9016040EAC600EE683043F4
:1003E000266806F5C07606EB011630602E69206897
:1003F00000F5C07000EB01104660287D01280DD18A
:10040000206800F5C07000EB0110406840F4807671
:10041000206800F5C07000EB01104660D07900063E
:10042000967940EA0640567940EA06261079064356
:10043000206800F5C07000EB0110C660D07800069F
:10044000967840EA0640567840EA0620167830430F
:10045000266806F5C07606EB0116B060206800F548
:10046000C07000EB0110006840F00106206800F544
:10047000C07000EB01100660002070BD06E0FFE7D1
:10048000606A40F4001060620120F6E7606A40F4A0
:10049000802060620120F0E770B504460A46002320
:1004A000216894F82000012803D094F82000022845
:1004B0007CD1414901F50071086840F001000860F5
:1004C000086820F47C5008600868556A40EA0520F6
:1004D0000860157D012000FA05F3C8699843C861DA
:1004E000A1F50071D069C8B9D1F80C029843C1F8E0
:1004F0000C02908880B2958940EA054501F510709C
:10050000566940F83650108880B2158940EA054592
:1005100001F51070566900EBC6004560D0690128EE
:1005200019D1D1F80C021843C1F80C02908880B29E
:10053000158840EA054501F51070566940F83650B7
:10054000908980B2158940EA054501F51070566919
:1005500000EBC6004560906928B9D1F804029843C1
:10056000C1F8040204E0D1F804021843C1F80402FF
:10057000106928B9D1F814029843C1F8140204E0B4
:10058000D1F814021843C1F81402106A012804D1EA
:10059000D1F81C021843C1F81C02D1F8000220F067
:1005A0000100C1F80002002070BDFFE7606A40F45E
:1005B000802060620120F7E700640040704730B59A
:1005C000044694F82000012803D094F82000022863
:1005D0007DD151B92068C06800F0030090B9606A0D
:1005E00040F400106062012030BD01290AD120686A
:1005F000006900F0030028B9606A40F400106062EE
:100600000120F1E7206800F5D87000EB01100068C8
:1006100000F004009060906840B9206800F5D87040
:1006200000EB01100068400D106007E0206800F545
:10063000D87000EB01100068C0085060206800F519
:10064000D87000EB0110006800F002004008D06094
:10065000206800F5D87000EB0110406800F00F0032
:100660001061206800F5D87000EB0110406800F4BC
:100670007F40000A9061206800F5D87000EB0110FF
:100680004068000C5061206800F5D87000EB011044
:1006900080681870206800F5D87000EB0110806841
:1006A00000F47F40000A5870206800F5D87000EB15
:1006B0000110806800F47F00000C9870206800F53D
:1006C000D87000EB01108068000ED87000E034E0B4
:1006D000206800F5D87000EB0110C0681871206820
:1006E00000F5D87000EB0110C06800F47F40000AEC
:1006F0005871206800F5D87000EB0110C06800F454
:100700007F00000C9871206800F5D87000EB011094
:10071000C068000ED87131B92068C06840F0200070
:100720002568E86007E0012905D12068006940F0EC
:10073000200025682861002056E7606A40F4802088
:100740006062012050E72DE9F05F04460025206833
:1007500046692068D0F80490206887682068D0F83F
:100760000CA02068D0F810B02068D0F8188006F0EF
:100770000100002855D007F00100C0B10120216818
:10078000886007F0020018B1204600F087FA0EE0FA
:1007900007F0040010B145F4006508E007F0080018
:1007A00010B145F4805502E0204600F076FA07F4D7
:1007B0008070C8B14FF480702168886007F40070C1
:1007C00018B1204600F06CFA0EE007F4806010B11A
:1007D00045F4005508E007F4006010B145F4804589
:1007E00002E0204600F05BFA07F48030C8B14FF415
:1007F00080302168886007F4003018B1204600F08E
:1008000051FA0EE007F4802010B145F4004508E0ED
:1008100007F4002010B145F4803502E0204600F0D6
:1008200040FA06F0080038B10AF0100020B145F493
:10083000007510202168C86006F0040040B10AF07D
:10084000080028B108202168C860204600F0A4F9FB
:1008500006F0020038B12068C06800F0030010B153
:10086000204600F09BF906F0400038B10BF0100074
:1008700020B145F4806510202168086106F0200051
:1008800040B10BF0080028B108202168086120461B
:1008900000F0D0F906F0100038B12068006900F0CF
:1008A000030010B1204600F0C6F906F4003040B154
:1008B00009F0100028B1102021684860204600F09F
:1008C000BBF906F4803040B109F0080028B10820D7
:1008D00021684860204600F0E6F906F4004088B33D
:1008E00009F0040078B306F4807020B108F001002C
:1008F00008B145F0010506F4007020B108F00200CF
:1009000008B145F0020506F4806020B108F004004B
:1009100008B145F0040506F40060A0B108F07000CD
:1009200088B108F07000402817D006DC10280BD0E2
:1009300020280CD0302819D10CE0502810D0602885
:1009400014D110E01DE019E045F008050FE045F076
:1009500010050CE045F0200509E045F0400506E0F3
:1009600045F0800503E045F4807500E000BF00BF5E
:100970002068806920F07000216888610420216867
:1009800048602DB1606A284360622046FFF716FE7A
:10099000BDE8F09F70B5044600250CB9012070BD7C
:1009A00094F8200010B9204600F0B0F820680068E4
:1009B00020F002002168086000F09EFA05460DE074
:1009C00000F09AFA401B0A2808D9606A40F4003007
:1009D0006062052084F820000120E0E7206840687C
:1009E00000F002000028EBD12068006840F0010010
:1009F0002168086000F080FA05460DE000F07CFAFE
:100A0000401B0A2808D9606A40F400306062052063
:100A100084F820000120C2E72068406800F001004F
:100A20000028EBD0207E012806D12068006840F025
:100A300080002168086005E02068006820F08000E0
:100A400021680860607E012806D12068006840F0B7
:100A500040002168086005E02068006820F0400040
:100A600021680860A07E012806D12068006840F057
:100A700020002168086005E02068006820F0200060
:100A800021680860E07E012806D12068006820F017
:100A900010002168086005E02068006840F0100040
:100AA00021680860207F012806D12068006840F096
:100AB00008002168086005E02068006820F0080050
:100AC00021680860607F012806D12068006840F036
:100AD00004002168086005E02068006820F0040038
:100AE00021680860D4E9020108432169084361696B
:100AF00008436168491E08432168C861002060629C
:100B0000012084F82000002049E7000010B586B0DD
:100B100004461E492068884235D100BF002000905D
:100B20001B48006840F0806019490860084600686A
:100B300000F08060009000BF00BF00BF0020009068
:100B40000846006840F0007008600846006800F041
:100B50000070009000BF00BF4FF440500190022091
:100B6000029000200390032004900920059001A921
:100B7000084800F0C1F800221146402000F0BAFAFF
:100B8000402000F0AAFA06B010BD00000068004046
:100B900040380240000402407047000010B504468F
:100BA0001E4B1F4A00212046FFF709FDA0BB1C4831
:100BB0000068A0F2012030B101280ED0022816D022
:100BC000032828D11DE01548C0781449897800EB26
:100BD000012000B2134908801DE01048C0780F4979
:100BE000897800EB012000B20F49088013E00B4820
:100BF000C0780A49897800EB012000B20B490880CF
:100C000009E00648C0780549897800EB012000B268
:100C10000749088000BF00BF10BD00000C00002085
:100C2000740000201400002016000020180000208E
:100C30001A00002070477047704770B504460025C1
:100C400094F82000012822D1022084F82000206896
:100C5000006820F001002168086000F04DF90546A9
:100C60000DE000F049F9401B0A2808D9606A40F4F9
:100C700000306062052084F82000012070BD2068EB
:100C8000406800F001000028EBD16062F6E7606A7E
:100C900040F4002060620120F0E770477047704721
:100CA0007047704770477047014691F83500022839
:100CB00003D08020486501207047052081F8350069
:100CC0000868006820F001000A6810600020F3E75F
:100CD00070B5044600F010F906462546681C10B1B0
:100CE00004480078054400BF00F006F9801BA842C4
:100CF000FAD370BD38000020F8B502460B46002537
:100D0000002400200021DCE0012606FA01F51E681F
:100D100006EA0504AC4273D15E68022E02D05E681A
:100D2000122E13D1CF0802F1200656F827004E07E5
:100D3000F70E0F26BE40B0434F07FF0E1E69BE40A0
:100D40003043CF0802F1200646F8270010684F0014
:100D50000326BE40B0431E7906F003064F00BE4096
:100D6000304310605E68012E08D05E68022E05D008
:100D70005E68112E02D05E68122E13D190684F006B
:100D80000326BE40B0434F00DE68BE403043906053
:100D9000506801268E40B0431E79C6F300168E407F
:100DA00030435060D0684F000326BE40B0434F0030
:100DB0009E68BE403043D0605E6806F08056B6F153
:100DC000805F7DD100BF00260096404E366846F415
:100DD00080463E4F3E603E46366806F480460096AA
:100DE00000BF00BF3A4E8F0856F827008E07370F16
:100DF0000F26BE40B043374EB24202D1002624E057
:100E00005EE0354EB24201D101261EE0334EB242C1
:100E100001D1022619E0324EB24201D1032614E07C
:100E2000304EB24201D104260FE02F4EB24201D122
:100E300005260AE02D4EB24201D1062605E02C4ED1
:100E4000B24201D1072600E008268F073F0FBE40BF
:100E500030431F4E8F0846F82700264E3068A043C7
:100E60005E6806F48036B6F5803F00D12043214EFF
:100E70003060361D3068A0435E6806F40036B6F573
:100E8000003F00D120431B4E361D3060361D3068B8
:100E9000A0435E6806F48016B6F5801F00D120439B
:100EA000144E08363060361D3068A0435E6806F484
:100EB0000016B6F5001F00D120430E4E0C363060F0
:100EC000491C1029FFF420AFF8BD0000443802404F
:100ED00008380140000002400004024000080240BF
:100EE000000C0240001002400014024000180240B2
:100EF000001C0240003C01400148006870470000AF
:100F0000300000200348006803490978084401497B
:100F100008607047300000203800002010B50D48F0
:100F2000006840F400700B4908600846006840F40F
:100F3000806008600846006840F480700860032004
:100F400000F016F9002000F007F800F02BF8002060
:100F500010BD0000003C024070B504460E48007809
:100F60004FF47A71B1FBF0F00C490968B1FBF0F570
:100F7000284600F088FC08B1012070BD102C07D273
:100F800000222146501E00F0B5F80548046001E03B
:100F90000120F2E70020F0E7380000203C000020AC
:100FA0003400002008B500BF0020009023480068EE
:100FB00040F48040214908600846006800F4804001
:100FC000009000BF00BF00BF00200090081F006815
:100FD00040F08050091F08600846006800F080500B
:100FE000009000BF00BF032000F0C2F800221146AD
:100FF0006FF00B0000F07EF8002211466FF00A003F
:1010000000F078F8002211466FF0090000F072F845
:1010100000221146501F00F06DF800221146101FEB
:1010200000F068F800221146901E00F063F80022DC
:101030001146501E00F05EF808BD00004438024022
:1010400070B504460D4616460CB9012070BD94F8E3
:10105000390028B9002084F83800204600F028FE26
:10106000242084F839002068C06820F400502168EA
:10107000C860204601F0EAF92068006920F4904039
:10108000216808612068406920F02A0021684861D1
:101090002068006920F00F0021680861206800695D
:1010A0002843216808612068C06820F40060216836
:1010B000C8602068C06830432168C8602068C06884
:1010C00040F400502168C8600020E063202084F8CC
:1010D000390084F83A000020B8E700BF00F01F0292
:1010E000012191404209920002F1E022C2F8001170
:1010F00000BF70472DE9F05F80460D461646002779
:1011000000F022FF074639462A46334601F0070021
:10111000C0F1070ABAF1040F02D94FF0040A01E046
:10112000C0F1070AD14600F1040ABAF1070F02D252
:101130004FF0000A01E0A0F1030AD4464FF0010A83
:101140000AFA09FAAAF1010A0AEA020A0AFA0CFAE8
:101150004FF0010B0BFA0CFBABF1010B0BEA030B8D
:101160004AEA0B042146404600F0F6FEBDE8F09F37
:1011700000BF00F00702064B19684FF6FF03194045
:10118000044B0B4343EA0221014B196000BF704737
:101190000CED00E00000FA0570B504460D460CB9F0
:1011A000012070BD5848006800F00F00A84209D225
:1011B00055490D700846006800F00F00A84201D0A4
:1011C0000120EEE7207800F0020002281DD12078EF
:1011D00000F00400042805D14C48006840F4E050B9
:1011E0004A490860207800F00800082805D14748DF
:1011F000006840F46040454908604448006820F0B9
:10120000F000A168084341490860207800F001001F
:10121000A8B36068012807D13C4808380068C0F3CB
:101220004040B8B90120BCE76068022802D060687D
:10123000032807D1354808380068C0F3406048B932
:101240000120AEE7314808380068C0F3400008B913
:101250000120A6E72D48006820F0030061680843DC
:101260002A490860FFF748FE064609E0FFF744FEFA
:10127000801B41F28831884202D9032091E707E0C0
:101280002248006800F00C006168B0EB810FEDD1DE
:101290001D48006800F00F00A84209D91A490D70D6
:1012A0000846006800F00F00A84201D0012078E74E
:1012B000207800F00400042807D11448006820F4C6
:1012C000E050E168084311490860207800F0080008
:1012D000082808D10D48006820F46040216940EAE0
:1012E000C1000A49086000F03DF808490968C1F3E7
:1012F0000311074A515CC840064908600020FFF707
:101300002BFE00204DE70000003C02400838024060
:10131000EC2800083C0000200148006870470000ED
:101320003C00002000B5FFF7F7FF04490968C1F34E
:101330008221034A515CC84000BD000008380240C9
:10134000FC28000800B5FFF7E7FF04490968C1F36E
:101350004231034A515CC84000BD000008380240D9
:10136000FC2800082DE9F047002400250026A146AE
:101370002548006800F00C0020B1042805D008289A
:101380003AD105E0DFF8849039E0DFF8849036E068
:101390001D48001F006800F03F041B48001F006844
:1013A00000F4800078B11A481749091F0968C1F391
:1013B0008811A0FB01700146224600233846FEF743
:1013C000FFFE05460EE011480F49091F0968C1F3E9
:1013D0008811A0FB01700146224600233846FEF723
:1013E000EFFE05460848001F0068C0F30140401C9E
:1013F0004600B5FBF6F902E0DFF8109000BF00BF31
:101400004846BDE8F0870000083802400024F40098
:1014100040787D01F8B504460CB90120F8BD20786C
:1014200000F00100002874D0F948006800F00C00BA
:1014300004280DD0F648006800F00C00082813D1ED
:10144000F348001F006800F48000B0F5800F0BD156
:10145000EF4808380068C0F34040002859D0606861
:10146000002856D10120D9E700BF6068B0F5803F61
:1014700008D1E7480838006840F48030E44908396A
:1014800008601EE06068B0F5A02F0DD1E048083874
:10149000006840F48020DE4908390860084600688A
:1014A00040F4803008600CE0D9480838006820F427
:1014B0008030D749083908600846006820F4802049
:1014C000086000BF606890B1FFF716FD054606E0B2
:1014D000FFF712FD401B642801D903209EE7CC488A
:1014E00008380068C0F340400028F1D011E0FFF751
:1014F00003FD054606E0FFF7FFFC401B642801D909
:1015000003208BE7C24808380068C0F34040002839
:10151000F1D1207800F0020002285FD1BC480068B9
:1015200000F00C0058B1BA48006800F00C00082820
:101530001CD1B748001F006800F48000B0B9B4485F
:1015400008380068C0F3400020B1E068012801D0ED
:10155000012063E7AE480838006820F0F8002169F0
:1015600040EAC100AA490839086037E0E06800B3E2
:101570000120A8490860FFF7BFFC054606E0FFF719
:10158000BBFC401B022801D9032047E7A0480838CC
:101590000068C0F340000028F1D09D48083800687A
:1015A00020F0F800216940EAC10099490839086033
:1015B00014E0002097490860FFF79EFC054606E00E
:1015C000FFF79AFC401B022801D9032026E7904828
:1015D00008380068C0F340000028F1D1207800F0FE
:1015E000080008282CD16069A8B101208A49086048
:1015F000FFF782FC054606E0FFF77EFC401B022851
:1016000001D903200AE782486C300068C0F340002B
:101610000028F1D014E000207F490860FFF76CFC3F
:10162000054606E0FFF768FC401B022801D90320AD
:10163000F4E677486C300068C0F340000028F1D130
:10164000207800F00400042870D10026704838305B
:10165000006800F0805090B900BF002000906C48F6
:101660003830006840F080506949383108600846D9
:10167000006800F08050009000BF00BF012667485E
:10168000006800F48070B0B96448006840F480706D
:1016900062490860FFF730FC054606E0FFF72CFCC6
:1016A000401B022801D90320B8E65C48006800F41A
:1016B00080700028F2D000BFA068012808D15448EB
:1016C0006830006840F001005149683108601DE051
:1016D000A06805280DD14E486830006840F004002D
:1016E0004B49683108600846006840F00100086016
:1016F0000CE047486830006820F001004449683138
:1017000008600846006820F00400086000BFA06878
:10171000A8B1FFF7F1FB054609E0FFF7EDFB401B21
:1017200041F28831884202D9032077E626E0384822
:1017300068300068C0F340000028EED013E0FFF7E7
:10174000DBFB054608E0FFF7D7FB401B41F2883181
:10175000884201D9032061E62D4868300068C0F353
:1017600040000028EFD1012E07D129483830006809
:1017700020F0805026493831086000BFA069B8B316
:101780002348006800F00C0008285ED0A0690228F9
:1017900046D100201F490866FFF7AEFB054606E06C
:1017A000FFF7AAFB401B022801D9032036E61848A0
:1017B00008380068C0F340600028F1D1D4E907017F
:1017C0000843616A40EA81110122A06AC2EB50001D
:1017D00041EA00412C20005D41EA00600C49091FEC
:1017E000086001200B490866FFF786FB054607E005
:1017F0002DE0FFF781FB401B022801D903200DE6F5
:10180000034808380068C0F340600028F1D01EE0AB
:101810000838024000004742800E474200700040F6
:1018200000200C490866FFF767FB054606E0FFF756
:1018300063FB401B022801D90320EFE5064800683E
:10184000C0F340600028F2D101E00120E6E500206D
:10185000E4E500000000474200380240042808D1B7
:101860004FF0E021096941F004014FF0E0221161DD
:1018700007E04FF0E021096921F004014FF0E02278
:1018800011617047704770B504462546681EB0F177
:10189000807F01D301200FE0681E4FF0E0214861F6
:1018A0000F214FF0FF3000F057FB00204FF0E021F8
:1018B000886107200861002070BD10B5FFF7E2FFC6
:1018C00010BD70477047024600BF92F838000128EB
:1018D00001D102207047012082F8380000BF0220A9
:1018E00082F839001068406820F070001368586072
:1018F000106840680B681843136858601068806867
:1019000020F0800013689860106880684B68184366
:1019100013689860012082F8390000BF002082F827
:10192000380000BF00BFD5E710B504460CB9012050
:1019300010BD94F8390028B9002084F838002046FA
:1019400000F00CF8022084F83900211D206800F016
:1019500093FC012084F839000020E9E738B50446FB
:101960000E492068884217D100BF002000900C4823
:10197000006840F010000A4908600846006800F05E
:101980001000009000BF00BF002201213620FFF7A9
:10199000B1FB3620FFF7A1FB38BD0000001000406E
:1019A0004038024001460868C06840F001000A68FB
:1019B000D0600868006840F001000A6810600020EC
:1019C0007047704710B5044620680069C0F34000B6
:1019D000D8B12068C068C0F34000B0B16FF0020019
:1019E00021680861012020762068806900F00300EA
:1019F00018B12046FFF7E5FF05E0204600F0ADF8FE
:101A0000204600F0ABF80020207620680069C0F383
:101A10008000D8B12068C068C0F38000B0B16FF01A
:101A2000040021680861022020762068806900F4A3
:101A3000407018B12046FFF7C4FF05E0204600F0D3
:101A40008CF8204600F08AF8002020762068006993
:101A5000C0F3C000D8B12068C068C0F3C000B0B106
:101A60006FF0080021680861042020762068C069B2
:101A700000F0030018B12046FFF7A3FF05E0204661
:101A800000F06BF8204600F069F80020207620680E
:101A90000069C0F30010D8B12068C068C0F300101E
:101AA000B0B16FF01000216808610820207620682E
:101AB000C06900F4407018B12046FFF782FF05E0CE
:101AC000204600F04AF8204600F048F80020207632
:101AD0002068006900F0010058B12068C06800F07B
:101AE000010030B16FF0010021680861204600F06C
:101AF00036F820680069C0F3C01058B12068C0688B
:101B0000C0F3C01030B16FF080002168086120463A
:101B1000FFF7D7FE20680069C0F3801058B1206835
:101B2000C068C0F3801030B16FF0400021680861D8
:101B3000204600F015F820680069C0F3401058B145
:101B40002068C068C0F3401030B16FF020002168F9
:101B500008612046FFF7B6FE10BD7047704770471A
:101B6000704770472DE9F0470446206805682068F3
:101B7000C668206847694FF00008C14605F00F08A5
:101B8000B8F1000F0AD105F0200038B106F02000AE
:101B900020B1204600F00CFCBDE8F087B8F1000F42
:101BA0006DD007F0010018B906F49070002866D0D7
:101BB00005F0010030B106F4807018B1E06B40F020
:101BC0000100E06305F0040030B107F0010018B136
:101BD000E06B40F00200E06305F0020030B107F076
:101BE000010018B1E06B40F00400E06305F008006C
:101BF00030B107F0010018B1E06B40F00800E0637D
:101C0000E06B68B305F0200028B106F0200010B1A9
:101C1000204600F0CDFB20684069C0F38019E06BDE
:101C200000F0080010B9B9F1000F22D0204600F0F2
:101C30009FFB2068406900F04000B0B12068406917
:101C400020F0400021684861606B50B11748616B1B
:101C50000865606BFFF728F810B1606B016D88476D
:101C60000CE02046FFF77DFF08E02046FFF779FFF4
:101C700004E02046FFF775FF0020E0638CE705F0E5
:101C8000800030B106F0800018B1204600F092FDCF
:101C900082E705F0400030B106F0400018B1204660
:101CA00000F076FB78E700BF76E700005D230008D0
:101CB00010B586B004461D492068884233D100BF64
:101CC000002000901A48006840F010001849086091
:101CD0000846006800F01000009000BF00BF4815E3
:101CE000019002200290002003900320049007201E
:101CF000059001A90F48FEF7FFFF80200190022008
:101D0000029000200390032004900720059001A971
:101D10000948FEF7F1FF002211462520FFF7EAF9F6
:101D20002520FFF7DAF906B010BD000000100140D1
:101D300044380240000002400004024010B503464F
:101D400093F83A00202829D101B10AB9012010BD29
:101D500000BF93F83800012801D10220F7E70120E5
:101D600083F8380000BF99629A85DA850020D8632D
:101D7000222083F83A0000BF002083F8380000BF1B
:101D80001868406940F001001C6860611868C0680C
:101D900040F490701C68E0600020D8E70220D6E78D
:101DA00010B5044606492068884208D10122054939
:101DB0000548FFF7C3FF0348007800F0E3F810BDC3
:101DC000001001401C000020CC000020704700BF24
:101DD000FEE7000010B50F480F4908600320486077
:101DE00000210D488160C1604FF4002101614FF472
:101DF000401141610021017641768176C1760177FB
:101E000001214177FEF7C6FD18B1452103A000F07E
:101E10000FFD10BD006800404C0000202E2E2F53F7
:101E200072632F63616E2E630000000008B500BF6F
:101E3000002000901548006840F0800013490860B9
:101E40000846006800F08000009000BF00BF00BF9F
:101E5000002000900846006840F002000860084634
:101E6000006800F00200009000BF00BF00BF00202B
:101E700000900846006840F00100086008460068CD
:101E800000F00100009000BF00BF08BD30380240E4
:101E90001CB50F480F4908605320486000210D48C9
:101EA00081604FF47A71C160FFF73EFD18B13C21AB
:101EB00009A000F0BDFC0020009001906946054893
:101EC000FFF701FD18B1432103A000F0B1FC1CBDD8
:101ED00000100040900000202E2E2F5372632F74AC
:101EE000696D2E630000000010B50E480E490860B1
:101EF0000E4848604FF480510B4881600021C1605A
:101F00004FF4806101610421416100218161C1615F
:101F100000221146FFF794F818B1442104A000F004
:101F200087FC10BD00100140CC000020A0860100FD
:101F30002E2E2F5372632F75736172742E630000FF
:101F400000BFFEE77047000002480068C0F30220AF
:101F5000704700000CED00E010B5002807DA0A0712
:101F6000140E054A00F00F031B1FD45403E00A07A8
:101F7000130E024A135410BD18ED00E000E400E017
:101F800070470000434A1268434B1B68D11A00296E
:101F900001DB0A4600E04A42012A02DD00213F4AF5
:101FA00011603C4909683C4A11603C490A6809686B
:101FB000491C3A4B19603A49885419460968122954
:101FC00067D10121374A117035490978344A52786E
:101FD00041EA0221C1F30A01334A118030494978AC
:101FE000C9102F4A927841EA4211C1F30A012E4AE0
:101FF00051802B4989788911294AD27841EA820196
:10200000274A127941EA8221C1F30A01264A9180C6
:10201000234909794910224A527941EAC211C1F390
:102020000A01214AD1801E49497909118908117292
:102030001B494979C1F30111517219498979184A2B
:10204000D27941EA022109B2174A51811449097A29
:10205000134A527A41EA02210AB213498A8110498D
:10206000897A0F4AD27A41EA02210AB20E49CA811C
:102070000B490A7B0C498A7409494A7B0A49CA748C
:102080000749897B084A91820021064A11701A4645
:102090001160704708000020280000202C0000205C
:1020A0000C010020240000202001002070470000C7
:1020B0002DE9F0418AB080460C4615461E46109F19
:1020C0004FF40070019000200490039008200590C8
:1020D000200A8DF82000E0B28DF82100280A8DF842
:1020E0002200E8B28DF82300300A8DF82400F0B207
:1020F0008DF82500380A8DF82600F8B28DF82700F3
:1021000007AB08AA01A90348FEF731F90AB0BDE8F8
:10211000F08100004C00002010B5FEF7F3FEFFF741
:10212000CCFB10BD10B592B000BF002000902E482F
:10213000006840F080502C4908600846006800F0B4
:102140008050009000BF00BF00BF002000902748D3
:10215000006840F48040254908600846006800F4A3
:102160008040009000BF00BF02200690012009902F
:1021700010200A9002200C9000210D9108210E9150
:10218000A8210F91022110910421119106A8FFF7B7
:1021900041F918B1AC2116A000F04AFB0F200190C4
:1021A00002200290002003904FF4A050049005906C
:1021B000052101A8FEF7F0FF18B1BA210CA000F02C
:1021C00037FBFFF7A9F84FF47A71B0FBF1F4204622
:1021D000FFF759FB0420FFF741FB00221146501E78
:1021E000FEF788FF12B010BD40380240007000407A
:1021F0002E2E2F5372632F6D61696E2E63000000C7
:102200001448006840F470001249086012480068E1
:1022100040F001001049086000200F4908310860B3
:102220000D4800680D4908400B4908600C48091D1D
:102230000860081F006820F48020091F0860002043
:1022400005490C3108604FF0006002498039086090
:102250007047000088ED00E000380240FFFFF6FE06
:102260001030002410B5FEF749F80248FFF7AAFB2A
:1022700010BD000090000020002202682C4B984204
:102280000ED0B0F1804F0BD02A4B984208D02A4B89
:10229000984205D0294B984202D0294B984201D14F
:1022A000012300E000231BB122F070024B681A43A7
:1022B0001F4B984220D0B0F1804F1DD01D4B98424B
:1022C0001AD01D4B984217D01C4B984214D01C4B6F
:1022D000984211D01B4B98420ED01B4B98420BD00A
:1022E0001A4B984208D01A4B984205D0194B984285
:1022F00002D0194B984201D1012300E000231BB109
:1023000022F44072CB681A4302608B68C3620B6888
:102310008362074B984202D0094B984201D10123B6
:1023200000E000230BB10B69036301234361704795
:10233000000001400004004000080040000C004084
:1023400000040140004001400044014000480140B9
:1023500000180040001C00400020004070B50546F9
:10236000AC6B0020E085E0842046FFF7FAFB70BDEF
:102370000168C96821F490710268D16001684969F7
:1023800021F0010102685161202180F83A10704764
:1023900010B504462068C06820F040002168C8607D
:1023A000202084F839002046FFF710FD002010BDE2
:1023B00070B5044694F83A00222844D1A068B0F5DC
:1023C000805F13D1A56A206940B920684068C0F3D6
:1023D00008002880A06A801CA06219E0206840687C
:1023E000C0B22880A06A401CA06211E0206938B900
:1023F00020684068C1B2A26A501CA062117007E058
:102400002068406800F07F01A26A501CA062117031
:10241000E08D401E80B2E08598B92068C06820F445
:1024200090702168C8602068406920F00100216830
:102430004861202084F83A002046FFF7B1FC0020D4
:1024400070BD0020FCE70220FAE700002DE9F04112
:10245000044600252068056925F44055E0680543D9
:10246000206805612068C56849F20C6085432169D0
:10247000A068084361690843E1690843054320688F
:10248000C5602068456925F44075A069054320684A
:102490004561E069B0F5004F7ED1C44920688842AB
:1024A00003D0C349206888425DD1FEF74BFF00EBA3
:1024B000C00101EB001061684900B0FBF1F064213C
:1024C000B0FBF1F00601FEF73DFF00EBC00101EBB0
:1024D000001061684900B0FBF1F7FEF733FF00EB35
:1024E000C00101EB001061684900B0FBF1F064210C
:1024F000B0FBF1F000EBC00101EB0010A7EB800096
:10250000322101EBC0006421B0FBF1F000F0F800D3
:1025100006EB4006FEF716FF00EBC00101EB0010D2
:1025200061684900B0FBF1F7FEF70CFF00EBC0015A
:1025300001EB001061684900B0FBF1F06421B0FBD1
:10254000F1F000EBC00101EB0010A7EB800032219D
:1025500001EBC0006421B0FBF1F000F00700304453
:102560002168886020E1FEF7DDFE00EBC00101EB91
:10257000001061684900B0FBF1F06421B0FBF1F09C
:102580000601FEF7CFFE00EBC00101EB0010616811
:102590004900B0FBF1F700E045E0FEF7C3FE00EBB9
:1025A000C00101EB001061684900B0FBF1F064214B
:1025B000B0FBF1F000EBC00101EB0010A7EB8000D5
:1025C000322101EBC0006421B0FBF1F000F0F80013
:1025D00006EB4006FEF7A6FE00EBC00101EB001083
:1025E00061684900B0FBF1F7FEF79CFE00EBC0010B
:1025F00001EB001061684900B0FBF1F06421B0FB11
:10260000F1F000EBC00101EB0010A7EB80003221DC
:1026100001EBC0006421B0FBF1F000F00700304492
:1026200021688860C0E061492068884203D0604921
:10263000206888425CD1FEF785FE00EBC00101EB0B
:10264000001061688900B0FBF1F6FEF77BFE00EB3D
:10265000C00101EB001061688900B0FBF1F064215A
:10266000B0FBF1F000EBC00101EB0010A6EB800025
:10267000322101EB00106421B0FBF1F000F0F00614
:10268000FEF760FE00EBC00101EB001061688900FD
:10269000B0FBF1F06421B0FBF1F006EB0016FEF7A1
:1026A00051FE00EBC00101EB001061688900B0FB36
:1026B000F1F7FEF747FE00EBC00101EB0010616887
:1026C0008900B0FBF1F06421B0FBF1F000EBC00138
:1026D00001EB0010A7EB8000322101EB0010642118
:1026E000B0FBF1F000F00F003044216888605BE03F
:1026F000FEF718FE00EBC00101EB001061688900D5
:10270000B0FBF1F6FEF70EFE00EBC00101EB00108E
:1027100061688900B0FBF1F06421B0FBF1F000EBDF
:10272000C00101EB0010A6EB8000322101EB00108C
:102730006421B0FBF1F000F0F006FEF7F3FD00EBD2
:10274000C00101EB001061688900B0FBF1F0642169
:10275000B0FBF1F006EB0016FEF7E4FD00EBC00164
:1027600001EB001061688900B0FBF1F7FEF7DAFDBC
:1027700000EBC00101EB001061688900B0FBF1F0D3
:102780006421B0FBF1F000EBC00101EB0010A7EBFE
:102790008000322101EB00106421B0FBF1F000F069
:1027A0000F00304421688860BDE8F08100100140CE
:1027B00000140140014691F8390021282CD1886885
:1027C000B0F5805F0FD10A6A1088C0F308000B686B
:1027D0005860086918B9086A801C086209E0086A2C
:1027E000401C086205E00B6A581C086218780B68E8
:1027F0005860C88C401E80B2C88458B90868C06848
:1028000020F080000B68D8600868C06840F0400085
:102810000B68D860002070470220FCE710B5024822
:10282000FFF7A0F910BD0000CC00002000BFFEE7BC
:1028300000BFFEE702E008C8121F08C1002AFAD153
:1028400070477047002001E001C1121F002AFBD130
:1028500070470000FEF762FBFFF764FCFFF7E6FA43
:10286000FFF7B8FAFFF714FBFFF73EFBFDF70CFD8F
:102870001248FFF797F812211148FDF762FD18B1D1
:10288000702110A0FFF7D4FF0A20FEF721FA0C48B0
:10289000FEF7D3F918B176210AA0FFF7C9FF01228C
:1028A0000C490D48FFF74AFA41F28830FEF710FA5A
:1028B00000F01BF801E000F012F8FCE790000020A7
:1028C0004C0000202E2E2F5372632F6D61696E2EE7
:1028D000630000001C000020CC00002070477047FF
:1028E00010B5FFF7B7FF002010BD704700000000D3
:1028F00000000000010203040607080900000000B0
:102900000102030424290008000000204000000008
:10291000342800086429000840000020F804000062
:102920004428000800000000000000000000000033
:102930000000000000000000000000000000000097
:102940000000000000000000000000000000000087
:102950000000000000000000100000000100000066
:042960000024F4005B
:040000050800018965
:00000001FF
